:020000040000FA
:100000000C945E000C9486000C9486000C94860080
:100010000C9486000C94BC060C9486000C94080684
:100020000C9486000C9486000C9486000C94330784
:100030000C9486000C9486000C9486000C94860028
:100040000C94BE050C9486000C948A060C946406ED
:100050000C9486000C9486000C9486000C94860008
:100060000C9486000C9486000200000000240027F7
:10007000002A0000000000250028002B00040404D2
:100080000404040404020202020202030303030341
:10009000030102040810204080010204081020011E
:1000A0000204081020000000080002010000030400
:1000B00007000000000000000000AA0711241FBE76
:1000C000CFEFD8E0DEBFCDBF11E0A0E0B1E0E4E9C2
:1000D000FCE102C005900D92AC38B107D9F722E0DF
:1000E000ACE8B1E001C01D92A339B207E1F710E01E
:1000F000CEE5D0E004C02197FE010E94420ECD352E
:10010000D107C9F70E9446080C94480E0C940000D1
:1001100090E0FC01EB55FF4F2491FC01EF56FF4F9F
:100120003491FC01E358FF4FE491EE23C9F0222300
:1001300039F0233001F1A8F4213019F1223029F1EE
:10014000F0E0EE0FFF1FED58FF4FA591B4918FB770
:10015000F894EC91611126C030953E233C938FBFFB
:1001600008952730A9F02830C9F0243049F780914C
:1001700080008F7D03C0809180008F778093800006
:10018000DFCF84B58F7784BDDBCF84B58F7DFBCF88
:100190008091B0008F778093B000D2CF8091B00073
:1001A0008F7DF9CF3E2BDACFCF93DF9390E0FC0128
:1001B000EF56FF4F249183589F4FFC018491882371
:1001C000D1F090E0880F991FFC01E759FF4FA591EE
:1001D000B491FC01ED58FF4FC591D491623071F498
:1001E0009FB7F8943C91822F809583238C93E8816C
:1001F0002E2B28839FBFDF91CF9108958FB7F8945E
:10020000EC912E2B2C938FBFF6CF3FB7F8948091B3
:10021000D0019091D101A091D201B091D30126B526
:10022000A89B05C02F3F19F00196A11DB11D3FBF2E
:10023000BA2FA92F982F8827BC01CD01620F711DFD
:10024000811D911D42E0660F771F881F991F4A95F7
:10025000D1F708958F929F92AF92BF92CF92DF9283
:10026000EF92FF924B015C010E9405016B017C0142
:100270000E9405016C197D098E099F09683E734033
:1002800081059105A8F321E0821A9108A108B1081F
:1002900088EEC80E83E0D81EE11CF11C8114910485
:1002A000A104B10429F7FF90EF90DF90CF90BF90A9
:1002B000AF909F908F9008952FB7F8946091CC01E4
:1002C0007091CD018091CE019091CF012FBF089503
:1002D0009091000189130BC0E8E6F0E0E4919FEFF4
:1002E00090930001E13049F028F0E23061F060E0E5
:1002F0000C94880010926E00FACF90916F009D7F51
:1003000090936F00F4CF909170009D7F9093700058
:1003100091E09093B0009091B100987F9460909399
:10032000B1001092B300E3CF4F925F926F927F9231
:100330008F929F92AF92BF92CF92DF92EF92FF92F5
:100340000F931F93CF93DF9300D000D01F92CDB7B0
:10035000DEB78B0129013A01909100018917C9F09C
:100360009F3F09F47EC00F900F900F900F900F9059
:10037000DF91CF911F910F91FF90EF90DF90CF9081
:10038000BF90AF909F908F907F906F905F904F90B5
:100390000895E8E6F0E094919D8397FDE4CF61E055
:1003A0000E94D4008D81882321F09D81923009F034
:1003B0004AC14801B12CA12C60E072E18AE790E0CB
:1003C000A50198010E94810C29833A834B835C83A9
:1003D00069017A0181E0C81AD108E108F1089FEFAC
:1003E000C916D104E104F10409F00CF401C160E480
:1003F00072E48FE090E0A50198010E94810C6901F0
:100400007A0181E0C81AD108E108F1089D81923093
:1004100009F0A2C08FEFC816D104E104F10409F07D
:100420000CF4E6C160E970ED83E090E0A50198016D
:100430000E94810C69017A0191E0C91AD108E10892
:10044000F1088FEFC816D104E104F10411F00CF0AB
:100450007FC183E09091B100987F892B8093B10098
:10046000CFC080930001E8E6F0E094919D839F3F28
:1004700009F479CF913041F150F0923009F446C03F
:100480009D8197FD70CF61E00E94D4008ECF14BC97
:1004900015BC94B5926094BD95B5916095BD282F1B
:1004A00030E0F901E358FF4FE491F0E0EE0FFF1F59
:1004B000ED58FF4F45915491F901EF56FF4FE491EC
:1004C000E09391011D826BCF109280001092810009
:1004D000909181009860909381009091810091604B
:1004E00090938100282F30E0F901E358FF4FE49109
:1004F000F0E0EE0FFF1FED58FF4F45915491F901C9
:10050000EF56FF4FE491E093900149CF1092B00075
:100510001092B1009091B00092609093B0009091D1
:10052000B10091609093B100282F30E0F901E358B9
:10053000FF4FE491F0E0EE0FFF1FED58FF4F4591A4
:10054000549150939B0140939A01F901EF56FF4F4C
:10055000E491E0939C0123CF9FEFC916D104E104FD
:10056000F10409F00CF46DC068E478EE81E090E0ED
:10057000A50198010E94810C69017A0181E0C81AE5
:10058000D108E108F1089D81992309F4FAC08FEFA1
:10059000C816D104E104F10411F00CF0FBC0EFC067
:1005A00064E274EF80E090E0A50194010E94810C68
:1005B00069017A0181E0C81AD108E108F10885E0F3
:1005C0009FEFC916D104E104F10409F008F442CF09
:1005D00062E17AE780E090E0A50194010E94810C3D
:1005E00069017A0181E0C81AD108E108F108E5C083
:1005F00081E09D8191112ECF95B5987F892B85BD86
:100600002FEF3FEFA901411451046104710409F077
:1006100043C09D81913009F45EC0923009F46DC0F1
:100620009111A1CEC7BC20939601309397014093BE
:1006300098015093990180916E00826080936E00C2
:1006400092CE82E0D6CFB12CA12C60E072E18AE795
:1006500090E0A50198010E94810C69017A0181E076
:10066000C81AD108E108F108C114D10491E0E906E3
:10067000F10404F591E08D81813011F680918100C3
:10068000887F892B809381002FEF3FEFA9014114D0
:10069000510461047104F9F0D801AA0FBB1FA30132
:1006A00092010E94A00C28EE33E040E050E00E944E
:1006B000B30CAFCF68E478EE81E090E0A50198013B
:1006C0000E94810C69017A0181E0C81AD108E10811
:1006D000F10893E0D0CFD0928900C0928800209397
:1006E000920130939301409394015093950180912E
:1006F0006F00826080936F0036CEC092B30020936B
:100700009D0130939E0140939F015093A0018091E1
:10071000700082608093700026CE84E09FEFC9163F
:10072000D104E104F10409F008F466CFC980DA804D
:10073000EB80FC808AE0F594E794D794C7948A957F
:10074000D1F781E0C81AD108E108F10885E054CF5B
:1007500068E478EE81E090E0A50198010E94810CA8
:1007600069017A0181E0C81AD108E108F1089FEF18
:10077000C916D104E104F10411F00CF011CF84E0AA
:1007800069CE83E09FEFC916D104E104F10409F0BA
:100790000CF432CF62E17AE780E090E0A5019401A9
:1007A0000E94810C69017A0181E0C81AD108E10830
:1007B000F1089D81992309F4B0CF86E09FEFC91617
:1007C000D104E104F10409F008F444CEC980DA80D0
:1007D000EB80FC809AE0F594E794D794C7949A95BF
:1007E000D1F781E0C81AD108E108F10887E032CEDC
:1007F00082E030CEAF92BF92CF92DF92EF92FF9223
:100800000F931F93CF93DF936C017B018B01040F38
:10081000151FEB015E01AE18BF08C017D10759F0D4
:100820006991D601ED91FC910190F081E02DC60116
:100830000995892B79F7C501DF91CF911F910F9110
:10084000FF90EF90DF90CF90BF90AF900895FC01A4
:10085000538D448D252F30E0842F90E0821B930B25
:10086000541710F0CF96089501970895FC01918DCB
:10087000828D981761F0A28DAE0FBF2FB11D5D96CE
:100880008C91928D9F5F9F73928F90E008958FEF70
:100890009FEF0895FC01918D828D981731F0828D24
:1008A000E80FF11D858D90E008958FEF9FEF08957B
:1008B000FC01918D228D892F90E0805C9F4F821BDF
:1008C00091098F739927089584ED91E00E9458044F
:1008D00021E0892B09F420E0822F089580E090E048
:1008E000892B29F00E94640481110C940000089562
:1008F000FC01A48DA80FB92FB11DA35ABF4F2C9195
:10090000848D90E001968F739927848FA689B7898B
:100910002C93A089B1898C91837080648C93938D82
:10092000848D981306C00288F389E02D80818F7D25
:1009300080830895EF92FF920F931F93CF93DF93DD
:10094000EC0181E0888F9B8D8C8D98131AC0E8890B
:10095000F989808185FF15C09FB7F894EE89FF89DA
:100960006083E889F98980818370806480839FBF78
:1009700081E090E0DF91CF911F910F91FF90EF9078
:100980000895F62E0B8D10E00F5F1F4F0F73112788
:10099000E02E8C8D8E110CC00FB607FCFACFE889C3
:1009A000F989808185FFF5CFCE010E947804F1CFCF
:1009B000EB8DEC0FFD2FF11DE35AFF4FF0829FB737
:1009C000F8940B8FEA89FB8980818062CFCFCF9327
:1009D000DF93EC01888D8823B9F0AA89BB89E88967
:1009E000F9898C9185FD03C0808186FD0DC00FB60D
:1009F00007FCF7CF8C9185FFF2CF808185FFEDCF8B
:100A0000CE010E947804E9CFDF91CF91089560E094
:100A100080E10E94880060E081E10E94880060E03F
:100A200082E10E94880060E083E10C948800FF92DC
:100A30000F931F93CF93DF93F62EC7E0D0E0082FDC
:100A400010E0B8010C2E02C0759567950A94E2F784
:100A50006170772788E00E94880061E08BE00E9447
:100A6000880060E08BE00E948800219750F7FF200B
:100A700069F061E08AE00E94880060E08AE0DF912E
:100A8000CF911F910F91FF900C948800DF91CF912F
:100A90001F910F91FF900895FC0101900020E9F74C
:100AA0003197AF01481B590BBC0184ED91E00C94C8
:100AB000FA038F929F92AF92BF920F931F93CF939F
:100AC000DF93CDB7DEB7A1970FB6F894DEBF0FBEA8
:100AD000CDBF19A2423008F44AE08E010F5D1F4FCE
:100AE000842E912CB12CA12CA50194010E94B30C51
:100AF000E62FB901CA01EA30F4F4E05DD801EE93C3
:100B00008D01232B242B252B79F790E080E0109783
:100B100019F0CD010E944C05A1960FB6F894DEBFE6
:100B20000FBECDBFDF91CF911F910F91BF90AF90BE
:100B30009F908F900895E95CE1CFCF92DF92EF9282
:100B4000FF92CF93DF936B017C016DE284ED91E026
:100B50000E949A04EC0166277727CB016C197D0966
:100B60008E099F094AE00E9459058C0F9D1FDF9155
:100B7000CF91FF90EF90DF90CF9008951F920F924A
:100B80000FB60F9211242F933F938F939F93AF93A0
:100B9000BF938091CC019091CD01A091CE01B091F5
:100BA000CF013091CB0123E0230F2D3758F501966B
:100BB000A11DB11D2093CB018093CC019093CD0159
:100BC000A093CE01B093CF018091D0019091D1013B
:100BD000A091D201B091D3010196A11DB11D8093C6
:100BE000D0019093D101A093D201B093D301BF91D2
:100BF000AF919F918F913F912F910F900FBE0F90CA
:100C00001F90189526E8230F0296A11DB11DD2CF83
:100C10001F920F920FB60F9211242F933F934F9371
:100C20005F936F937F938F939F93AF93BF93EF9354
:100C3000FF9380919D0190919E01A0919F01B091A1
:100C4000A001892B8A2B8B2BD1F190919C01E091F3
:100C50009A01F0919B0180818927808380919D0179
:100C600090919E01A0919F01B091A00118161906C4
:100C70001A061B069CF480919D0190919E01A09103
:100C80009F01B091A0010197A109B10980939D0135
:100C900090939E01A0939F01B093A001FF91EF91CB
:100CA000BF91AF919F918F917F916F915F914F9184
:100CB0003F912F910F900FBE0F901F90189580912C
:100CC00000010E946801EACF1F920F920FB60F92A7
:100CD00011242F933F934F935F936F937F938F9341
:100CE0009F93AF93BF93EF93FF9384ED91E00E94A6
:100CF0007804FF91EF91BF91AF919F918F917F9178
:100D00006F915F914F913F912F910F900FBE0F9078
:100D10001F9018951F920F920FB60F9211242F93C8
:100D20008F939F93EF93FF93E091E401F091E5019E
:100D30008081E091EA01F091EB0182FD1BC090817E
:100D40008091ED018F5F8F732091EE01821741F04A
:100D5000E091ED01F0E0EC52FE4F958F8093ED01B4
:100D6000FF91EF919F918F912F910F900FBE0F9058
:100D70001F9018958081F4CF1F920F920FB60F929B
:100D80001124CF92DF92EF92FF920F931F932F9334
:100D90003F934F935F936F937F938F939F93AF9303
:100DA000BF93CF93DF93EF93FF93C9B10E945C0190
:100DB00000918C0110918D0120918E0130918F0155
:100DC0006B017C01C01AD10AE20AF30A970186017D
:100DD000053611052105310510F122E030E0C095FE
:100DE000D0E0FE01022E02C0F595E7950A94E2F7E5
:100DF000E0FF32C060938C0170938D0180938E016F
:100E000090938F013093040120930301809103019B
:100E1000909104010697E1F481E08093CA01FF916B
:100E2000EF91DF91CF91BF91AF919F918F917F9182
:100E30006F915F914F913F912F911F910F91FF9073
:100E4000EF90DF90CF900F900FBE0F901F901895EE
:100E500081E08093C601E3CF2F5F3F4F27303105FC
:100E600009F0BFCFDCCF1F920F920FB60F92112463
:100E70002F933F934F935F936F937F938F939F93A2
:100E8000AF93BF93EF93FF938091C301882309F43D
:100E900050C08091C901882309F44BC00E94290CDD
:100EA00024E030E040E050E00E94810C6093C401F7
:100EB0008091C2018E3168F4E091C201F0E080912E
:100EC000C401EF55FE4F80838091C2018F5F8093F4
:100ED000C20181E08093C5018091BF019091C00162
:100EE00001969093C0018093BF010A9701F510927B
:100EF000850010928400609101017091020190E0E0
:100F000080E00E94130D26E636E646E65FE30E9487
:100F1000790D0E94E40C70930201609301017093BB
:100F20008900609388001092C0011092BF01109256
:100F3000C301FF91EF91BF91AF919F918F917F91ED
:100F40006F915F914F913F912F910F900FBE0F9036
:100F50001F9018951092D7011092D60188EE93E059
:100F6000A0E0B0E08093D8019093D901A093DA017A
:100F7000B093DB018BE491E09093D5018093D40191
:100F800085EC90E09093E1018093E00184EC90E0A7
:100F90009093E3018093E20180EC90E09093E5016F
:100FA0008093E40181EC90E09093E7018093E60167
:100FB00082EC90E09093E9018093E80186EC90E068
:100FC0009093EB018093EA011092ED011092EE01F3
:100FD0001092EF011092F00187E090E0909372027E
:100FE00080937102109274021092730281E090E07B
:100FF00090937602809375029093780280937702A3
:1010000080ED97E090937A028093790210927B02B0
:1010100010927C0210927D0210927E0210927F024A
:10102000109280021092810210928202109283022A
:101030001092840210928502109286021092880209
:101040001092870210928A021092890210928C02EA
:1010500010928B0210928E0210928D0210928F02CB
:1010600010929002109291021092920261E087E039
:101070000E94D40061E08091750290917602892BE4
:1010800009F060E0809171020C948800789484B536
:10109000826084BD84B5816084BD85B5826085BD74
:1010A00085B5816085BD80916E00816080936E0002
:1010B00010928100809181008260809381008091F4
:1010C00081008160809381008091800081608093A5
:1010D00080008091B10084608093B1008091B00065
:1010E00081608093B00080917A00846080937A0060
:1010F00080917A00826080937A0080917A0081608A
:1011000080937A0080917A00806880937A001092B0
:10111000C10061E080E10E94D40061E081E10E94B1
:10112000D40061E082E10E94D40061E083E10E948A
:10113000D4000E940705C2E062E08C2F0E94D40018
:10114000CF5FC730C9F780916800846080936800E2
:1011500082E090E061E070E020916D00AB01082E2C
:1011600001C0440F0A94EAF7242B20936D000196E6
:101170008730910589F761E08CE00E94D40061E03E
:101180008BE00E94D40061E08AE00E94D40061E01C
:1011900089E00E94D40061E088E00E94D40061E010
:1011A0008CE00E94880061E089E00E94880060E095
:1011B0008AE00E94880060E089E00E94880061E087
:1011C00087E00E94D400F894109281001092800071
:1011D000109285001092840083E294EF909389002E
:1011E000809388008CE0809381007894E091E40102
:1011F000F091E50182E08083E091E001F091E1016E
:101200001082E091E201F091E3018FEC8083109273
:10121000EC01E091E801F091E90186E08083E09142
:10122000E601F091E701808180618083E091E60131
:10123000F091E701808188608083E091E601F09180
:10124000E701808180688083E091E601F091E70109
:1012500080818F7D808303E214EF38E0E32EF12C50
:1012600043E0C42ED12C52E0A52EB12C77247394E8
:101270008091CA01882359F180916F008260809328
:101280006F0080916D0080936D00C9E0D1E069919D
:10129000799128E730E040E050E087E00E94940137
:1012A0006CE870E080E090E00E942A0181E0CF309D
:1012B000D80769F787E00E9468017092C301109215
:1012C000CA017092C9011092C8011092C7012AE0A8
:1012D000622E8091C901882309F462C28091730251
:1012E000909174028230910509F42AC183309105EE
:1012F00009F45BC10197D9F50E945C01209183023A
:10130000309184024091850250918602621B730BDA
:10131000840B950B20917B0230917C0240917D02E1
:1013200050917E02621773078407950700F1B0920F
:101330007402A09273020E945C0160938302709316
:101340008402809385029093860280917702909127
:101350007802019709F0EDC06091790270917A02EC
:1013600020E030E0A901809171020E9494018091F7
:10137000C901882381F18091730290917402892BB5
:1013800051F58FE191E090938802809387028FE07E
:1013900091E090938A0280938902F0928C02E0920D
:1013A0008B0210928E0210928D0210928F02109278
:1013B00090021092910210929202D0927402C09206
:1013C00073020E945C016093830270938402809395
:1013D0008502909386028091C601882309F490C00B
:1013E0001092C60180910301909104019927909376
:1013F0000401809303010297E091C101F0E0EF55F1
:10140000FE4F20811C01092E000C440855082817A6
:10141000190609F05BC189E591E00E944C05E09155
:10142000C101F0E0EF55FE4F608170E090E080E098
:101430004AE00E94590588E691E00E944C054AE086
:10144000C201B1010E9459058EE791E00E944C054E
:101450008091C1018F5F8093C101809003019090C2
:101460000401D0E0C0E092E0891A9108C815D905BE
:10147000A1F4FE01EE0FFF1FE15DFE4F608171815F
:1014800024E630E040E050E087E00E94940164E60A
:1014900070E080E090E00E942A012196C530D105DD
:1014A00029F787E00E9468018091C7019091C801E7
:1014B00001969093C8018093C701C091C701D09154
:1014C000C8018C2F662D0E940E0E982EE92FF0E099
:1014D000E35CFE4F60E080810E941705E92DF0E09B
:1014E000E35CFE4F61E080810E941705BE0190E041
:1014F00080E04AE00E9459058EE791E00E944C0589
:101500008091C501882309F4E4CEC091C4010E94F2
:10151000070562E370E080E090E00E942A0161E04C
:1015200080E18C0F0E9488001092C5017092C30167
:10153000CECE60917502809171020E94880017CF13
:101540000E945C01209183023091840240918502C7
:1015500050918602621B730B840B950B20917F02C6
:10156000309180024091810250918202621773078C
:101570008407950708F4FBCE109274021092730250
:1015800080917102209177023091780221303105EB
:1015900019F40E946801EBCE61E020917502309150
:1015A0007602232B51F260E0C8CFE0918D02F091DA
:1015B0008E0280918B0290918C02E817F9070CF053
:1015C0007CC080918F0290919002A0919102B09185
:1015D0009202892B8A2B8B2BF1F5EE0FFF1FA09126
:1015E0008902B0918A02AE0FBF1F6D917C9188EE87
:1015F00093E00E941A0E1B01770F44085508809152
:10160000870290918802E80FF91F60817181A20121
:101610009101809171020E949401C201B1010E9466
:10162000150D26E636E646EA5FE30E94790D0E9434
:10163000E40C60938F0270939002809391029093D8
:1016400092020E945C0160938302709384028093F3
:101650008502909386020E945C0120918302309162
:1016600084024091850250918602621B730B840BA9
:10167000950B20918F0230919002409191025091F0
:101680009202621773078407950708F470CE809161
:1016900071020E94680110928F02109290021092C3
:1016A00091021092920280918D0290918E02019689
:1016B00090938E0280938D025ACE809171020E9487
:1016C0006801109274021092730251CE81E891E089
:1016D0000E944C0589E591E00E944C05E091C10112
:1016E000F0E0EF55FE4F608170E090E080E04AE06E
:1016F0000E94590588E691E00E944C0557FE4AC0B9
:10170000C201B1010E949D058EE791E00E944C0547
:10171000C7E3D1E06991799128EC30E040E050E0F6
:1017200087E00E9494016CE870E080E090E00E9405
:101730002A0181E0CD33D80769F787E00E9468016C
:101740001092C9011092C6011092CA0180916D00D9
:10175000806480936D001092C2011092C1011092BA
:10176000C0011092BF011093020100930101109378
:1017700089000093880090E080E0FC01EF55FE4F67
:10178000108201968E319105C1F780916F00809390
:101790006F0093CE4AE0C201B1010E945905B4CF57
:1017A00080E090E0892B09F463CD0E9464048823D3
:1017B00009F45CCD0E94000059CD8F929F92AF92A8
:1017C000BF92CF92DF92EF92FF92CF93DF93EC0123
:1017D000688179818A819B816115710581059105F7
:1017E00021F464E279ED8BE597E02DE133EF41E000
:1017F00050E00E94810C49015A019B01AC01A7EA0B
:10180000B1E40E94A00C6B017C01ACEEB4EFA50129
:1018100094010E94AE0CC60ED71EE81EF91EF7FEFC
:1018200006C081E0C81AD108E10880E8F80AC88239
:10183000D982EA82FB82C701B6019F77DF91CF91FF
:10184000FF90EF90DF90CF90BF90AF909F908F90E0
:1018500008958F929F92AF92BF92CF92DF92EF92B4
:10186000FF926091050170910601809107019091AE
:101870000801611571058105910521F464E279ED96
:101880008BE597E02DE133EF41E050E00E94810CC1
:1018900049015A019B01AC01A7EAB1E40E94A00CE6
:1018A0006B017C01ACEEB4EFA50194010E94AE0C7B
:1018B000C60ED71EE81EF91EF7FE06C081E0C81A44
:1018C000D108E10880E8F80AC0920501D09206012B
:1018D000E0920701F0920801C701B6019F77FF90DF
:1018E000EF90DF90CF90BF90AF909F908F90089532
:1018F000609305017093060180930701909308019E
:101900000895052E97FB1EF400940E94980C57FD35
:1019100007D00E94B30C07FC03D04EF40C94980C33
:1019200050954095309521953F4F4F4F5F4F08950B
:1019300090958095709561957F4F8F4F9F4F08953B
:101940000E94D50CA59F900DB49F900DA49F800D73
:10195000911D11240895B7FF0C94A00C0E94A00CB7
:10196000821B930B0895A1E21A2EAA1BBB1BFD013B
:101970000DC0AA1FBB1FEE1FFF1FA217B307E4076E
:10198000F50720F0A21BB30BE40BF50B661F771FC6
:10199000881F991F1A9469F76095709580959095A6
:1019A0009B01AC01BD01CF010895A29FB001B39F7F
:1019B000C001A39F700D811D1124911DB29F700D58
:1019C000811D1124911D08950E94580D88F09F5784
:1019D00098F0B92F9927B751B0F0E1F0660F771F53
:1019E000881F991F1AF0BA95C9F714C0B13091F049
:1019F0000E94720DB1E008950C94720D672F782F3C
:101A00008827B85F39F0B93FCCF38695779567950D
:101A1000B395D9F73EF490958095709561957F4F79
:101A20008F4F9F4F0895E89409C097FB3EF490951F
:101A30008095709561957F4F8F4F9F4F9923A9F0A7
:101A4000F92F96E9BB279395F69587957795679536
:101A5000B795F111F8CFFAF4BB0F11F460FF1BC07A
:101A60006F5F7F4F8F4F9F4F16C0882311F096E90D
:101A700011C0772321F09EE8872F762F05C06623BB
:101A800071F096E8862F70E060E02AF09A95660F74
:101A9000771F881FDAF7880F9695879597F908952D
:101AA00057FD9058440F551F59F05F3F71F047950F
:101AB000880F97FB991F61F09F3F79F087950895F4
:101AC000121613061406551FF2CF4695F1DF08C013
:101AD000161617061806991FF1CF86957105610530
:101AE00008940895E894BB2766277727CB0197F9D8
:101AF00008950E948C0D0C94FD0D0E94EF0D38F09E
:101B00000E94F60D20F0952311F00C94E60D0C9434
:101B1000EC0D11240C94730D0E94500D70F3959FE1
:101B2000C1F3950F50E0551F629FF001729FBB27D4
:101B3000F00DB11D639FAA27F00DB11DAA1F649F70
:101B40006627B00DA11D661F829F2227B00DA11D23
:101B5000621F739FB00DA11D621F839FA00D611DA9
:101B6000221F749F3327A00D611D231F849F600DCA
:101B7000211D822F762F6A2F11249F5750409AF0F3
:101B8000F1F088234AF0EE0FFF1FBB1F661F771F7F
:101B9000881F91505040A9F79E3F510580F00C944A
:101BA000E60D0C94730D5F3FE4F3983ED4F38695F5
:101BB00077956795B795F795E7959F5FC1F7FE2BEA
:101BC000880F911D9695879597F9089597F99F67C6
:101BD00080E870E060E008959FEF80EC08950024B5
:101BE0000A941616170618060906089500240A9482
:101BF00012161306140605060895092E0394000C08
:101C000011F4882352F0BB0F40F4BF2B11F460FF96
:101C100004C06F5F7F4F8F4F9F4F0895991B79E0EE
:101C200004C0991F961708F0961B881F7A95C9F76C
:101C30008095089597FB072E16F4009407D077FD42
:101C400009D00E942E0E07FC05D03EF49095819598
:101C50009F4F0895709561957F4F0895AA1BBB1BF8
:101C600051E107C0AA1FBB1FA617B70710F0A61B9C
:101C7000B70B881F991F5A95A9F780959095BC01BD
:101C8000CD010895EE0FFF1F0590F491E02D09940A
:101C9000F894FFCFFF23F4FFFF01000000700397CB
:101CA00004200602000400040003000200060004F1
:101CB00000030006015D0137019F0188010601153F
:101CC000010601060126014A015D01B8014A01DC55
:101CD000003F065B4F666D7D077F6F000000009A36
:101CE00004FA032704E704580436044A044F696BD6
:101CF000656961206E617070693A2000207C204D1A
:101D00006974C3A4207061696E65747469696E3A00
:101D100020000D0A0056C384C38452494E2120007E
:107E0000112484B714BE81FFF0D085E080938100F7
:107E100082E08093C00088E18093C10086E0809377
:107E2000C20080E18093C4008EE0C9D0259A86E02C
:107E300020E33CEF91E0309385002093840096BBD3
:107E4000B09BFECF1D9AA8958150A9F7CC24DD24C4
:107E500088248394B5E0AB2EA1E19A2EF3E0BF2EE7
:107E6000A2D0813461F49FD0082FAFD0023811F036
:107E7000013811F484E001C083E08DD089C08234E0
:107E800011F484E103C0853419F485E0A6D080C0E4
:107E9000853579F488D0E82EFF2485D0082F10E0AE
:107EA000102F00270E291F29000F111F8ED06801E7
:107EB0006FC0863521F484E090D080E0DECF843638
:107EC00009F040C070D06FD0082F6DD080E0C81688
:107ED00080E7D80618F4F601B7BEE895C0E0D1E017
:107EE00062D089930C17E1F7F0E0CF16F0E7DF06D8
:107EF00018F0F601B7BEE89568D007B600FCFDCFD4
:107F0000A601A0E0B1E02C9130E011968C91119780
:107F100090E0982F8827822B932B1296FA010C0160
:107F200087BEE89511244E5F5F4FF1E0A038BF0790
:107F300051F7F601A7BEE89507B600FCFDCF97BE46
:107F4000E89526C08437B1F42ED02DD0F82E2BD052
:107F50003CD0F601EF2C8F010F5F1F4F84911BD097
:107F6000EA94F801C1F70894C11CD11CFA94CF0C13
:107F7000D11C0EC0853739F428D08EE10CD085E9AC
:107F80000AD08FE07ACF813511F488E018D01DD067
:107F900080E101D065CF982F8091C00085FFFCCF94
:107FA0009093C60008958091C00087FFFCCF809118
:107FB000C00084FD01C0A8958091C6000895E0E648
:107FC000F0E098E1908380830895EDDF803219F02E
:107FD00088E0F5DFFFCF84E1DECF1F93182FE3DFCA
:107FE0001150E9F7F2DF1F91089580E0E8DFEE27F6
:047FF000FF270994CA
:027FFE00040479
:00000001FF
