:100000000C945E000C9486000C9486000C94860080
:100010000C9486000C944A060C9486000C94960569
:100020000C9486000C9486000C9486000C94C506F3
:100030000C9486000C9486000C9486000C94860028
:100040000C944C050C9486000C9418060C94F20544
:100050000C9486000C9486000C9486000C94860008
:100060000C9486000C9486000200000000240027F7
:10007000002A0000000000250028002B00040404D2
:100080000404040404020202020202030303030341
:10009000030102040810204080010204081020011E
:1000A0000204081020000000080002010000030400
:1000B00007000000000000000000250711241FBEFB
:1000C000CFEFD8E0DEBFCDBF11E0A0E0B1E0E6EDBC
:1000D000FAE102C005900D92AC35B107D9F722E0E4
:1000E000ACE5B1E001C01D92A134B207E1F710E028
:1000F000CEE5D0E004C02197FE010E94630DCD350E
:10010000D107C9F70E94C1070C94690D0C94000037
:1001100090E0FC01EB55FF4F2491FC01EF56FF4F9F
:100120003491FC01E358FF4FE491EE23C9F0222300
:1001300039F0233001F1A8F4213019F1223029F1EE
:10014000F0E0EE0FFF1FED58FF4FA591B4918FB770
:10015000F894EC91611126C030953E233C938FBFFB
:1001600008952730A9F02830C9F0243049F780914C
:1001700080008F7D03C0809180008F778093800006
:10018000DFCF84B58F7784BDDBCF84B58F7DFBCF88
:100190008091B0008F778093B000D2CF8091B00073
:1001A0008F7DF9CF3E2BDACFCF93DF9390E0FC0128
:1001B000EF56FF4F249183589F4FFC018491882371
:1001C000D1F090E0880F991FFC01E759FF4FA591EE
:1001D000B491FC01ED58FF4FC591D491623071F498
:1001E0009FB7F8943C91822F809583238C93E8816C
:1001F0002E2B28839FBFDF91CF9108958FB7F8945E
:10020000EC912E2B2C938FBFF6CF3FB7F8948091B3
:100210007E0190917F01A0918001B091810126B56E
:10022000A89B05C02F3F19F00196A11DB11D3FBF2E
:10023000BA2FA92F982F8827BC01CD01620F711DFD
:10024000811D911D42E0660F771F881F991F4A95F7
:10025000D1F708958F929F92AF92BF92CF92DF9283
:10026000EF92FF924B015C010E9405016B017C0142
:100270000E9405016C197D098E099F09683E734033
:1002800081059105A8F321E0821A9108A108B1081F
:1002900088EEC80E83E0D81EE11CF11C8114910485
:1002A000A104B10429F7FF90EF90DF90CF90BF90A9
:1002B000AF909F908F9008952FB7F89460917A0136
:1002C00070917B0180917C0190917D012FBF0895F9
:1002D0009091020189130BC0E8E6F0E0E4919FEFF2
:1002E00090930201E13049F028F0E23061F060E0E3
:1002F0000C94880010926E00FACF90916F009D7F51
:1003000090936F00F4CF909170009D7F9093700058
:1003100091E09093B0009091B100987F9460909399
:10032000B1001092B300E3CF4F925F926F927F9231
:100330008F929F92AF92BF92CF92DF92EF92FF92F5
:100340000F931F93CF93DF9300D000D01F92CDB7B0
:10035000DEB78B0129013A01909102018917C9F09A
:100360009F3F09F47EC00F900F900F900F900F9059
:10037000DF91CF911F910F91FF90EF90DF90CF9081
:10038000BF90AF909F908F907F906F905F904F90B5
:100390000895E8E6F0E094919D8397FDE4CF61E055
:1003A0000E94D4008D81882321F09D81923009F034
:1003B0004AC14801B12CA12C60E072E18AE790E0CB
:1003C000A50198010E94A20B29833A834B835C8389
:1003D00069017A0181E0C81AD108E108F1089FEFAC
:1003E000C916D104E104F10409F00CF401C160E480
:1003F00072E48FE090E0A50198010E94A20B6901D0
:100400007A0181E0C81AD108E108F1089D81923093
:1004100009F0A2C08FEFC816D104E104F10409F07D
:100420000CF4E6C160E970ED83E090E0A50198016D
:100430000E94A20B69017A0191E0C91AD108E10872
:10044000F1088FEFC816D104E104F10411F00CF0AB
:100450007FC183E09091B100987F892B8093B10098
:10046000CFC080930201E8E6F0E094919D839F3F26
:1004700009F479CF913041F150F0923009F446C03F
:100480009D8197FD70CF61E00E94D4008ECF14BC97
:1004900015BC94B5926094BD95B5916095BD282F1B
:1004A00030E0F901E358FF4FE491F0E0EE0FFF1F59
:1004B000ED58FF4F45915491F901EF56FF4FE491EC
:1004C000E09363011D826BCF109280001092810037
:1004D000909181009860909381009091810091604B
:1004E00090938100282F30E0F901E358FF4FE49109
:1004F000F0E0EE0FFF1FED58FF4F45915491F901C9
:10050000EF56FF4FE491E093620149CF1092B000A3
:100510001092B1009091B00092609093B0009091D1
:10052000B10091609093B100282F30E0F901E358B9
:10053000FF4FE491F0E0EE0FFF1FED58FF4F4591A4
:10054000549150936D0140936C01F901EF56FF4FA8
:10055000E491E0936E0123CF9FEFC916D104E1042B
:10056000F10409F00CF46DC068E478EE81E090E0ED
:10057000A50198010E94A20B69017A0181E0C81AC5
:10058000D108E108F1089D81992309F4FAC08FEFA1
:10059000C816D104E104F10411F00CF0FBC0EFC067
:1005A00064E274EF80E090E0A50194010E94A20B48
:1005B00069017A0181E0C81AD108E108F10885E0F3
:1005C0009FEFC916D104E104F10409F008F442CF09
:1005D00062E17AE780E090E0A50194010E94A20B1D
:1005E00069017A0181E0C81AD108E108F108E5C083
:1005F00081E09D8191112ECF95B5987F892B85BD86
:100600002FEF3FEFA901411451046104710409F077
:1006100043C09D81913009F45EC0923009F46DC0F1
:100620009111A1CEC7BC209368013093690140931A
:100630006A0150936B0180916E00826080936E001E
:1006400092CE82E0D6CFB12CA12C60E072E18AE795
:1006500090E0A50198010E94A20B69017A0181E056
:10066000C81AD108E108F108C114D10491E0E906E3
:10067000F10404F591E08D81813011F680918100C3
:10068000887F892B809381002FEF3FEFA9014114D0
:10069000510461047104F9F0D801AA0FBB1FA30132
:1006A00092010E94C10B28EE33E040E050E00E942E
:1006B000D40BAFCF68E478EE81E090E0A50198011B
:1006C0000E94A20B69017A0181E0C81AD108E108F1
:1006D000F10893E0D0CFD0928900C0928800209397
:1006E00064013093650140936601509367018091E6
:1006F0006F00826080936F0036CEC092B30020936B
:100700006F01309370014093710150937201809199
:10071000700082608093700026CE84E09FEFC9163F
:10072000D104E104F10409F008F466CFC980DA804D
:10073000EB80FC808AE0F594E794D794C7948A957F
:10074000D1F781E0C81AD108E108F10885E054CF5B
:1007500068E478EE81E090E0A50198010E94A20B88
:1007600069017A0181E0C81AD108E108F1089FEF18
:10077000C916D104E104F10411F00CF011CF84E0AA
:1007800069CE83E09FEFC916D104E104F10409F0BA
:100790000CF432CF62E17AE780E090E0A5019401A9
:1007A0000E94A20B69017A0181E0C81AD108E10810
:1007B000F1089D81992309F4B0CF86E09FEFC91617
:1007C000D104E104F10409F008F444CEC980DA80D0
:1007D000EB80FC809AE0F594E794D794C7949A95BF
:1007E000D1F781E0C81AD108E108F10887E032CEDC
:1007F00082E030CEAF92BF92CF92DF92EF92FF9223
:100800000F931F93CF93DF936C017B018B01040F38
:10081000151FEB015E01AE18BF08C017D10759F0D4
:100820006991D601ED91FC910190F081E02DC60116
:100830000995892B79F7C501DF91CF911F910F9110
:10084000FF90EF90DF90CF90BF90AF900895FC01A4
:10085000538D448D252F30E0842F90E0821B930B25
:10086000541710F0CF96089501970895FC01918DCB
:10087000828D981761F0A28DAE0FBF2FB11D5D96CE
:100880008C91928D9F5F9F73928F90E008958FEF70
:100890009FEF0895FC01918D828D981731F0828D24
:1008A000E80FF11D858D90E008958FEF9FEF08957B
:1008B000FC01918D228D892F90E0805C9F4F821BDF
:1008C00091098F739927089582E891E00E94580456
:1008D00021E0892B09F420E0822F089580E090E048
:1008E000892B29F00E94640481110C940000089562
:1008F000FC01A48DA80FB92FB11DA35ABF4F2C9195
:10090000848D90E001968F739927848FA689B7898B
:100910002C93A089B1898C91837080648C93938D82
:10092000848D981306C00288F389E02D80818F7D25
:1009300080830895EF92FF920F931F93CF93DF93DD
:10094000EC0181E0888F9B8D8C8D98131AC0E8890B
:10095000F989808185FF15C09FB7F894EE89FF89DA
:100960006083E889F98980818370806480839FBF78
:1009700081E090E0DF91CF911F910F91FF90EF9078
:100980000895F62E0B8D10E00F5F1F4F0F73112788
:10099000E02E8C8D8E110CC00FB607FCFACFE889C3
:1009A000F989808185FFF5CFCE010E947804F1CFCF
:1009B000EB8DEC0FFD2FF11DE35AFF4FF0829FB737
:1009C000F8940B8FEA89FB8980818062CFCFCF9327
:1009D000DF93EC01888D8823B9F0AA89BB89E88967
:1009E000F9898C9185FD03C0808186FD0DC00FB60D
:1009F00007FCF7CF8C9185FFF2CF808185FFEDCF8B
:100A0000CE010E947804E9CFDF91CF91089560E094
:100A100080E10E94880060E081E10E94880060E03F
:100A200082E10E94880060E083E10C948800FF92DC
:100A30000F931F93CF93DF93F62EC7E0D0E0082FDC
:100A400010E0B8010C2E02C0759567950A94E2F784
:100A50006170772788E00E94880061E08BE00E9447
:100A6000880060E08BE00E948800219750F7FF200B
:100A700069F061E08AE00E94880060E08AE0DF912E
:100A8000CF911F910F91FF900C948800DF91CF912F
:100A90001F910F91FF9008951F920F920FB60F9222
:100AA00011242F933F938F939F93AF93BF93809184
:100AB0007A0190917B01A0917C01B0917D013091F0
:100AC000790123E0230F2D3758F50196A11DB11DA3
:100AD0002093790180937A0190937B01A0937C010C
:100AE000B0937D0180917E0190917F01A091800162
:100AF000B09181010196A11DB11D80937E0190935B
:100B00007F01A0938001B0938101BF91AF919F912C
:100B10008F913F912F910F900FBE0F901F901895BE
:100B200026E8230F0296A11DB11DD2CF1F920F926E
:100B30000FB60F9211242F933F934F935F936F93B0
:100B40007F938F939F93AF93BF93EF93FF93809186
:100B50006F0190917001A0917101B0917201892B88
:100B60008A2B8B2BD1F190916E01E0916C01F09169
:100B70006D0180818927808380916F019091700140
:100B8000A0917101B0917201181619061A061B0680
:100B90009CF480916F0190917001A0917101B091CE
:100BA00072010197A109B10980936F0190937001BF
:100BB000A0937101B0937201FF91EF91BF91AF913A
:100BC0009F918F917F916F915F914F913F912F9165
:100BD0000F900FBE0F901F901895809102010E94F8
:100BE0006801EACF1F920F920FB60F9211242F9334
:100BF0003F934F935F936F937F938F939F93AF93A5
:100C0000BF93EF93FF9382E891E00E947804FF91F5
:100C1000EF91BF91AF919F918F917F916F915F9174
:100C20004F913F912F910F900FBE0F901F901895ED
:100C30001F920F920FB60F9211242F938F939F93B1
:100C4000EF93FF93E0919201F09193018081E09105
:100C50009801F091990182FD1BC0908180919B01C8
:100C60008F5F8F7320919C01821741F0E0919B016F
:100C7000F0E0EE57FE4F958F80939B01FF91EF912F
:100C80009F918F912F910F900FBE0F901F901895ED
:100C90008081F4CF1F920F920FB60F921124CF9242
:100CA000DF92EF92FF920F931F932F933F934F93F7
:100CB0005F936F937F938F939F93AF93BF93CF93E4
:100CC000DF93EF93FF93C9B10E945C0100915E0135
:100CD00010915F0120916001309161016B017C01F5
:100CE000C01AD10AE20AF30A97018601093E1340AD
:100CF0002105310530F122E030E0C095D0E0FE0161
:100D0000022E02C0F595E7950A94E2F7E0FF36C09F
:100D100060935E0170935F01809360019093610125
:100D20003093040120930301809103019091040109
:100D3000069701F581E080937801109204011092EA
:100D40000301FF91EF91DF91CF91BF91AF919F91FF
:100D50008F917F916F915F914F913F912F911F9153
:100D60000F91FF90EF90DF90CF900F900FBE0F90FC
:100D70001F90189581E080937401E3CF2F5F3F4F60
:100D80002730310509F0BBCFDCCF1F920F920FB691
:100D90000F9211242F933F934F935F936F937F9301
:100DA0008F939F93AF93BF93EF93FF9380917301C2
:100DB0008823D1F10E944A0B24E030E040E050E06B
:100DC0000E94A20B6093750181E08093760180916F
:100DD0005C0190915D01019690935D0180935C01AF
:100DE0000A9701F51092850010928400609100012D
:100DF0007091010190E080E00E94340C26E636E616
:100E000046E65FE30E949A0C0E94050C7093010174
:100E100060930001709389006093880010925D01D7
:100E200010925C0110927301FF91EF91BF91AF910D
:100E30009F918F917F916F915F914F913F912F91F2
:100E40000F900FBE0F901F90189510928501109271
:100E5000840188EE93E0A0E0B0E080938601909357
:100E60008701A0938801B09389018DE491E090936C
:100E700083018093820185EC90E090938F018093B1
:100E80008E0184EC90E0909391018093900180EC2E
:100E900090E0909393018093920181EC90E0909385
:100EA00095018093940182EC90E090939701809358
:100EB000960186EC90E090939901809398011092AE
:100EC0009B0110929C0110929D0110929E0187E05F
:100ED00090E09093200280931F02109222021092C1
:100EE000210281E090E0909324028093230290936A
:100EF00026028093250280ED97E09093280280934C
:100F000027021092290210922A0210922B021092AC
:100F10002C0210922D0210922E0210922F0210928B
:100F2000300210923102109232021092330210926B
:100F3000340210923602109235021092380210924A
:100F4000370210923A021092390210923C0210922B
:100F50003B0210923D0210923E0210923F0210920C
:100F6000400261E087E00E94D40061E080912302AA
:100F700090912402892B09F060E080911F020C946B
:100F80008800CF93DF931F92CDB7DEB7789484B5F6
:100F9000826084BD84B5816084BD85B5826085BD75
:100FA00085B5816085BD80916E00816080936E0003
:100FB00010928100809181008260809381008091F5
:100FC00081008160809381008091800081608093A6
:100FD00080008091B10084608093B1008091B00066
:100FE00081608093B00080917A00846080937A0061
:100FF00080917A00826080937A0080917A0081608B
:1010000080937A0080917A00806880937A001092B1
:10101000C10061E080E10E94D40061E081E10E94B2
:10102000D40061E082E10E94D40061E083E10E948B
:10103000D4000E94070512E062E0812F0E94D400D4
:101040001F5F1730C9F78091680084608093680043
:1010500082E090E061E070E020916D00AB01082E2D
:1010600001C0440F0A94EAF7242B20936D000196E7
:101070008730910589F761E08CE00E94D40061E03F
:101080008BE00E94D40061E08AE00E94D40061E01D
:1010900089E00E94D40061E088E00E94D40061E011
:1010A0008CE00E94880061E089E00E94880060E096
:1010B0008AE00E94880060E089E00E94880061E088
:1010C00087E00E94D400F894109281001092800072
:1010D000109285001092840083E294EF909389002F
:1010E000809388008CE0809381007894E091920155
:1010F000F091930182E08083E0918E01F0918F0165
:101100001082E0919001F09191018FEC8083109218
:101110009A01E0919601F091970186E08083E09139
:101120009401F0919501808180618083E091940128
:10113000F0919501808188608083E0919401F09125
:101140009501808180688083E0919401F091950100
:1011500080818F7D808341E2242E41E0342E51E155
:10116000652E51E0752E68E0A62EB12C55245394BF
:101170002AE0422E30E0832E30E0932E80917801D9
:10118000882379F180916F00826080936F00809155
:101190006D0080936D000BE011E0F8016191719199
:1011A0008F0128E730E040E050E087E00E949401A2
:1011B0006CE870E080E090E00E942A01F1E00131EB
:1011C0001F0759F787E00E9468015092730110923F
:1011D00078015092770181E090E09093060180932E
:1011E000050180912102909122028230910509F43B
:1011F00003C18330910509F434C10197E9F50E94D8
:101200005C01009131021091320220913302309141
:101210003402601B710B820B930B00912902109119
:101220002A0220912B0230912C026017710782074D
:10123000930710F1E2E0F0E0F0932202E093210244
:101240000E945C01609331027093320280933302FA
:10125000909334028091250290912602019709F023
:10126000C4C0609127027091280220E030E0A901FB
:1012700080911F020E94940180917701882371F16F
:101280008091210290912202892B41F53092360201
:10129000209235027092380260923702B0923A0280
:1012A000A092390210923C0210923B0210923D0231
:1012B00010923E0210923F021092400283E090E0B2
:1012C00090932202809321020E945C01609331027C
:1012D00070933202809333029093340280917601AE
:1012E000882359F0109175010E94070561E080E1A3
:1012F000810F0E94880010927601809174018823EA
:1013000009F467C080917701882309F462C0809155
:101310000301909104019C01332730930401209331
:101320000301825091E020917501821390E099832E
:101330000091050110910601802F642D0E942F0D50
:10134000F92EE82FF0E0E15CFE4F60E080810E9422
:101350001705EF2DF0E0E15CFE4F61E080810E9417
:1013600017058981882309F40FC1C0900301D0902B
:101370000401F12CE12C92E0C91AD108CE14DF044B
:10138000A1F4F601EE0FFF1FE95CFE4F6081718151
:1013900024E630E040E050E087E00E94940164E6FB
:1013A00070E080E090E00E942A01EFEFEE1AFE0A62
:1013B000F5E0EF16F10411F787E00E946801509202
:1013C00073010F5F1F4F10930601009305011092E8
:1013D00074018114910409F4D1CE0E94640488231D
:1013E00009F4C4CE0E940000C1CE60912302809116
:1013F0001F020E94880040CF0E945C0100913102D0
:10140000109132022091330230913402601B710B33
:10141000820B930B00912D0210912E0220912F022E
:1014200030913002601771078207930708F424CFC8
:10143000109222021092210280911F022091250217
:10144000309126022130310519F40E94680114CF31
:1014500061E02091230230912402232B51F260E0BD
:10146000C8CF20913B0230913C028091390290918B
:101470003A02281739070CF07EC080913D02909106
:101480003E02A0913F02B0914002892B8A2B8B2B08
:1014900009F03FC0220F331FE0913702F09138026C
:1014A000E20FF31F6081718188EE93E00E943B0D93
:1014B0006B01770FEE08FF0880913502909136029C
:1014C000280F391FF90160817181A7019601809170
:1014D0001F020E949401C701B6010E94360C26E645
:1014E00036E646EA5FE30E949A0C0E94050C609380
:1014F0003D0270933E0280933F02909340020E940F
:101500005C016093310270933202809333029093B6
:1015100034020E945C01009131021091320220914C
:10152000330230913402601B710B820B930B0091DC
:101530003D0210913E0220913F023091400260171F
:1015400071078207930708F497CE80911F020E94CB
:10155000680110923D0210923E0210923F021092DA
:10156000400280913B0290913C02019690933C0294
:1015700080933B0281CE80911F020E9468011092ED
:1015800022021092210278CE01E311E0F80161916C
:1015900071918F0128EC30E040E050E087E00E943C
:1015A00094016CE870E080E090E00E942A01F1E094
:1015B00007331F0759F787E00E94680110927801EE
:1015C00080916D00806480936D001092770180910E
:1015D0000501642D0E942F0D192FE82FF0E0E15C2A
:1015E000FE4F60E080810E941705E12FF0E0E15C92
:1015F000FE4F61E080810E941705E9CE8F929F9295
:10160000AF92BF92CF92DF92EF92FF92CF93DF9390
:10161000EC01688179818A819B8161157105810561
:10162000910521F464E279ED8BE597E02DE133EF4C
:1016300041E050E00E94A20B49015A019B01AC011C
:10164000A7EAB1E40E94C10B6B017C01ACEEB4EFE0
:10165000A50194010E94CF0BC60ED71EE81EF91EED
:10166000F7FE06C081E0C81AD108E10880E8F80A50
:10167000C882D982EA82FB82C701B6019F77DF91D7
:10168000CF91FF90EF90DF90CF90BF90AF909F9061
:101690008F9008958F929F92AF92BF92CF92DF92D8
:1016A000EF92FF926091070170910801809109010A
:1016B00090910A01611571058105910521F464E29B
:1016C00079ED8BE597E02DE133EF41E050E00E94AA
:1016D000A20B49015A019B01AC01A7EAB1E40E94A7
:1016E000C10B6B017C01ACEEB4EFA50194010E942B
:1016F000CF0BC60ED71EE81EF91EF7FE06C081E00E
:10170000C81AD108E10880E8F80AC0920701D0920F
:101710000801E0920901F0920A01C701B6019F7722
:10172000FF90EF90DF90CF90BF90AF909F908F9001
:1017300008956093070170930801809309019093C5
:101740000A010895052E97FB1EF400940E94B90B20
:1017500057FD07D00E94D40B07FC03D04EF40C9425
:10176000B90B50954095309521953F4F4F4F5F4FA6
:10177000089590958095709561957F4F8F4F9F4FFD
:1017800008950E94F60BA59F900DB49F900DA49F05
:10179000800D911D11240895B7FF0C94C10B0E9478
:1017A000C10B821B930B0895A1E21A2EAA1BBB1B2F
:1017B000FD010DC0AA1FBB1FEE1FFF1FA217B3071D
:1017C000E407F50720F0A21BB30BE40BF50B661F33
:1017D000771F881F991F1A9469F7609570958095F7
:1017E00090959B01AC01BD01CF010895A29FB0016E
:1017F000B39FC001A39F700D811D1124911DB29F45
:10180000700D811D1124911D08950E94790C88F09E
:101810009F5798F0B92F9927B751B0F0E1F0660FB4
:10182000771F881F991F1AF0BA95C9F714C0B130F5
:1018300091F00E94930CB1E008950C94930C672FE3
:10184000782F8827B85F39F0B93FCCF38695779524
:101850006795B395D9F73EF490958095709561950D
:101860007F4F8F4F9F4F0895E89409C097FB3EF438
:1018700090958095709561957F4F8F4F9F4F9923DD
:10188000A9F0F92F96E9BB279395F695879577955B
:101890006795B795F111F8CFFAF4BB0F11F460FF1B
:1018A0001BC06F5F7F4F8F4F9F4F16C0882311F073
:1018B00096E911C0772321F09EE8872F762F05C087
:1018C000662371F096E8862F70E060E02AF09A9522
:1018D000660F771F881FDAF7880F9695879597F917
:1018E000089557FD9058440F551F59F05F3F71F010
:1018F0004795880F97FB991F61F09F3F79F0879577
:101900000895121613061406551FF2CF4695F1DFFF
:1019100008C0161617061806991FF1CF869571058F
:10192000610508940895E894BB2766277727CB01C3
:1019300097F908950E94AD0C0C941E0D0E94100D95
:1019400038F00E94170D20F0952311F00C94070D2C
:101950000C940D0D11240C94940C0E94710C70F3D6
:10196000959FC1F3950F50E0551F629FF001729F44
:10197000BB27F00DB11D639FAA27F00DB11DAA1F53
:10198000649F6627B00DA11D661F829F2227B00DA0
:10199000A11D621F739FB00DA11D621F839FA00D2B
:1019A000611D221F749F3327A00D611D231F849F7B
:1019B000600D211D822F762F6A2F11249F575040D2
:1019C0009AF0F1F088234AF0EE0FFF1FBB1F661F4D
:1019D000771F881F91505040A9F79E3F510580F016
:1019E0000C94070D0C94940C5F3FE4F3983ED4F3F1
:1019F000869577956795B795F795E7959F5FC1F7BA
:101A0000FE2B880F911D9695879597F9089597F964
:101A10009F6780E870E060E008959FEF80EC089594
:101A200000240A94161617061806090608950024BD
:101A30000A9412161306140605060895092E039437
:101A4000000C11F4882352F0BB0F40F4BF2B11F4AB
:101A500060FF04C06F5F7F4F8F4F9F4F0895991BAA
:101A600079E004C0991F961708F0961B881F7A9595
:101A7000C9F78095089597FB072E16F4009407D0B8
:101A800077FD09D00E944F0D07FC05D03EF49095DC
:101A900081959F4F0895709561957F4F0895AA1B7A
:101AA000BB1B51E107C0AA1FBB1FA617B70710F049
:101AB000A61BB70B881F991F5A95A9F7809590957B
:101AC000BC01CD010895EE0FFF1F0590F491E02DAC
:061AD0000994F894FFCF19
:101AD60023F4FFFFFF0100010000007003970420BC
:101AE60006020004000400030002000600040003CE
:101AF6000006015D0137019F0188010601150106F7
:101B060001B8014A01DC00060126014A015D013FD8
:101B1600065B4F666D7D077F6F000000009A04FA32
:0C1B2600032704E704580436044A0400B6
:00000001FF
